{
  "_format": "hh3-artifact-1",
  "contractName": "TickifyTicket",
  "sourceName": "contracts/TickifyTicket.sol",
  "abi": [
    {
      "inputs": [
        {
          "internalType": "address",
          "name": "initialOwner",
          "type": "address"
        }
      ],
      "stateMutability": "nonpayable",
      "type": "constructor"
    },
    {
      "inputs": [
        {
          "internalType": "address",
          "name": "sender",
          "type": "address"
        },
        {
          "internalType": "uint256",
          "name": "tokenId",
          "type": "uint256"
        },
        {
          "internalType": "address",
          "name": "owner",
          "type": "address"
        }
      ],
      "name": "ERC721IncorrectOwner",
      "type": "error"
    },
    {
      "inputs": [
        {
          "internalType": "address",
          "name": "operator",
          "type": "address"
        },
        {
          "internalType": "uint256",
          "name": "tokenId",
          "type": "uint256"
        }
      ],
      "name": "ERC721InsufficientApproval",
      "type": "error"
    },
    {
      "inputs": [
        {
          "internalType": "address",
          "name": "approver",
          "type": "address"
        }
      ],
      "name": "ERC721InvalidApprover",
      "type": "error"
    },
    {
      "inputs": [
        {
          "internalType": "address",
          "name": "operator",
          "type": "address"
        }
      ],
      "name": "ERC721InvalidOperator",
      "type": "error"
    },
    {
      "inputs": [
        {
          "internalType": "address",
          "name": "owner",
          "type": "address"
        }
      ],
      "name": "ERC721InvalidOwner",
      "type": "error"
    },
    {
      "inputs": [
        {
          "internalType": "address",
          "name": "receiver",
          "type": "address"
        }
      ],
      "name": "ERC721InvalidReceiver",
      "type": "error"
    },
    {
      "inputs": [
        {
          "internalType": "address",
          "name": "sender",
          "type": "address"
        }
      ],
      "name": "ERC721InvalidSender",
      "type": "error"
    },
    {
      "inputs": [
        {
          "internalType": "uint256",
          "name": "tokenId",
          "type": "uint256"
        }
      ],
      "name": "ERC721NonexistentToken",
      "type": "error"
    },
    {
      "inputs": [
        {
          "internalType": "address",
          "name": "owner",
          "type": "address"
        }
      ],
      "name": "OwnableInvalidOwner",
      "type": "error"
    },
    {
      "inputs": [
        {
          "internalType": "address",
          "name": "account",
          "type": "address"
        }
      ],
      "name": "OwnableUnauthorizedAccount",
      "type": "error"
    },
    {
      "anonymous": false,
      "inputs": [
        {
          "indexed": true,
          "internalType": "address",
          "name": "owner",
          "type": "address"
        },
        {
          "indexed": true,
          "internalType": "address",
          "name": "approved",
          "type": "address"
        },
        {
          "indexed": true,
          "internalType": "uint256",
          "name": "tokenId",
          "type": "uint256"
        }
      ],
      "name": "Approval",
      "type": "event"
    },
    {
      "anonymous": false,
      "inputs": [
        {
          "indexed": true,
          "internalType": "address",
          "name": "owner",
          "type": "address"
        },
        {
          "indexed": true,
          "internalType": "address",
          "name": "operator",
          "type": "address"
        },
        {
          "indexed": false,
          "internalType": "bool",
          "name": "approved",
          "type": "bool"
        }
      ],
      "name": "ApprovalForAll",
      "type": "event"
    },
    {
      "anonymous": false,
      "inputs": [
        {
          "indexed": true,
          "internalType": "address",
          "name": "previousOwner",
          "type": "address"
        },
        {
          "indexed": true,
          "internalType": "address",
          "name": "newOwner",
          "type": "address"
        }
      ],
      "name": "OwnershipTransferred",
      "type": "event"
    },
    {
      "anonymous": false,
      "inputs": [
        {
          "indexed": true,
          "internalType": "address",
          "name": "from",
          "type": "address"
        },
        {
          "indexed": true,
          "internalType": "address",
          "name": "to",
          "type": "address"
        },
        {
          "indexed": true,
          "internalType": "uint256",
          "name": "tokenId",
          "type": "uint256"
        }
      ],
      "name": "Transfer",
      "type": "event"
    },
    {
      "inputs": [
        {
          "internalType": "address",
          "name": "to",
          "type": "address"
        },
        {
          "internalType": "uint256",
          "name": "tokenId",
          "type": "uint256"
        }
      ],
      "name": "approve",
      "outputs": [],
      "stateMutability": "nonpayable",
      "type": "function"
    },
    {
      "inputs": [
        {
          "internalType": "address",
          "name": "owner",
          "type": "address"
        }
      ],
      "name": "balanceOf",
      "outputs": [
        {
          "internalType": "uint256",
          "name": "",
          "type": "uint256"
        }
      ],
      "stateMutability": "view",
      "type": "function"
    },
    {
      "inputs": [
        {
          "internalType": "uint256",
          "name": "tokenId",
          "type": "uint256"
        }
      ],
      "name": "checkIn",
      "outputs": [],
      "stateMutability": "nonpayable",
      "type": "function"
    },
    {
      "inputs": [
        {
          "internalType": "uint256",
          "name": "",
          "type": "uint256"
        }
      ],
      "name": "checkedIn",
      "outputs": [
        {
          "internalType": "bool",
          "name": "",
          "type": "bool"
        }
      ],
      "stateMutability": "view",
      "type": "function"
    },
    {
      "inputs": [
        {
          "internalType": "uint256",
          "name": "tokenId",
          "type": "uint256"
        }
      ],
      "name": "getApproved",
      "outputs": [
        {
          "internalType": "address",
          "name": "",
          "type": "address"
        }
      ],
      "stateMutability": "view",
      "type": "function"
    },
    {
      "inputs": [
        {
          "internalType": "uint256",
          "name": "tokenId",
          "type": "uint256"
        }
      ],
      "name": "getEventId",
      "outputs": [
        {
          "internalType": "uint256",
          "name": "",
          "type": "uint256"
        }
      ],
      "stateMutability": "view",
      "type": "function"
    },
    {
      "inputs": [
        {
          "internalType": "address",
          "name": "owner",
          "type": "address"
        },
        {
          "internalType": "address",
          "name": "operator",
          "type": "address"
        }
      ],
      "name": "isApprovedForAll",
      "outputs": [
        {
          "internalType": "bool",
          "name": "",
          "type": "bool"
        }
      ],
      "stateMutability": "view",
      "type": "function"
    },
    {
      "inputs": [
        {
          "internalType": "uint256",
          "name": "tokenId",
          "type": "uint256"
        }
      ],
      "name": "isCheckedIn",
      "outputs": [
        {
          "internalType": "bool",
          "name": "",
          "type": "bool"
        }
      ],
      "stateMutability": "view",
      "type": "function"
    },
    {
      "inputs": [
        {
          "internalType": "address",
          "name": "to",
          "type": "address"
        },
        {
          "internalType": "uint256",
          "name": "eventId",
          "type": "uint256"
        }
      ],
      "name": "mintTicket",
      "outputs": [
        {
          "internalType": "uint256",
          "name": "",
          "type": "uint256"
        }
      ],
      "stateMutability": "nonpayable",
      "type": "function"
    },
    {
      "inputs": [],
      "name": "name",
      "outputs": [
        {
          "internalType": "string",
          "name": "",
          "type": "string"
        }
      ],
      "stateMutability": "view",
      "type": "function"
    },
    {
      "inputs": [],
      "name": "owner",
      "outputs": [
        {
          "internalType": "address",
          "name": "",
          "type": "address"
        }
      ],
      "stateMutability": "view",
      "type": "function"
    },
    {
      "inputs": [
        {
          "internalType": "uint256",
          "name": "tokenId",
          "type": "uint256"
        }
      ],
      "name": "ownerOf",
      "outputs": [
        {
          "internalType": "address",
          "name": "",
          "type": "address"
        }
      ],
      "stateMutability": "view",
      "type": "function"
    },
    {
      "inputs": [],
      "name": "renounceOwnership",
      "outputs": [],
      "stateMutability": "nonpayable",
      "type": "function"
    },
    {
      "inputs": [
        {
          "internalType": "address",
          "name": "from",
          "type": "address"
        },
        {
          "internalType": "address",
          "name": "to",
          "type": "address"
        },
        {
          "internalType": "uint256",
          "name": "tokenId",
          "type": "uint256"
        }
      ],
      "name": "safeTransferFrom",
      "outputs": [],
      "stateMutability": "nonpayable",
      "type": "function"
    },
    {
      "inputs": [
        {
          "internalType": "address",
          "name": "from",
          "type": "address"
        },
        {
          "internalType": "address",
          "name": "to",
          "type": "address"
        },
        {
          "internalType": "uint256",
          "name": "tokenId",
          "type": "uint256"
        },
        {
          "internalType": "bytes",
          "name": "data",
          "type": "bytes"
        }
      ],
      "name": "safeTransferFrom",
      "outputs": [],
      "stateMutability": "nonpayable",
      "type": "function"
    },
    {
      "inputs": [
        {
          "internalType": "address",
          "name": "operator",
          "type": "address"
        },
        {
          "internalType": "bool",
          "name": "approved",
          "type": "bool"
        }
      ],
      "name": "setApprovalForAll",
      "outputs": [],
      "stateMutability": "nonpayable",
      "type": "function"
    },
    {
      "inputs": [
        {
          "internalType": "bytes4",
          "name": "interfaceId",
          "type": "bytes4"
        }
      ],
      "name": "supportsInterface",
      "outputs": [
        {
          "internalType": "bool",
          "name": "",
          "type": "bool"
        }
      ],
      "stateMutability": "view",
      "type": "function"
    },
    {
      "inputs": [],
      "name": "symbol",
      "outputs": [
        {
          "internalType": "string",
          "name": "",
          "type": "string"
        }
      ],
      "stateMutability": "view",
      "type": "function"
    },
    {
      "inputs": [
        {
          "internalType": "uint256",
          "name": "",
          "type": "uint256"
        }
      ],
      "name": "tokenEvent",
      "outputs": [
        {
          "internalType": "uint256",
          "name": "",
          "type": "uint256"
        }
      ],
      "stateMutability": "view",
      "type": "function"
    },
    {
      "inputs": [
        {
          "internalType": "uint256",
          "name": "tokenId",
          "type": "uint256"
        }
      ],
      "name": "tokenURI",
      "outputs": [
        {
          "internalType": "string",
          "name": "",
          "type": "string"
        }
      ],
      "stateMutability": "view",
      "type": "function"
    },
    {
      "inputs": [
        {
          "internalType": "address",
          "name": "from",
          "type": "address"
        },
        {
          "internalType": "address",
          "name": "to",
          "type": "address"
        },
        {
          "internalType": "uint256",
          "name": "tokenId",
          "type": "uint256"
        }
      ],
      "name": "transferFrom",
      "outputs": [],
      "stateMutability": "nonpayable",
      "type": "function"
    },
    {
      "inputs": [
        {
          "internalType": "address",
          "name": "newOwner",
          "type": "address"
        }
      ],
      "name": "transferOwnership",
      "outputs": [],
      "stateMutability": "nonpayable",
      "type": "function"
    }
  ],
  "bytecode": "0x608060405234801561000f575f5ffd5b50604051612a37380380612a3783398181016040528101906100319190610266565b806040518060400160405280600e81526020017f5469636b696679205469636b65740000000000000000000000000000000000008152506040518060400160405280600381526020017f5449580000000000000000000000000000000000000000000000000000000000815250815f90816100ac91906104ce565b5080600190816100bc91906104ce565b5050505f73ffffffffffffffffffffffffffffffffffffffff168173ffffffffffffffffffffffffffffffffffffffff160361012f575f6040517f1e4fbdf700000000000000000000000000000000000000000000000000000000815260040161012691906105ac565b60405180910390fd5b61013e8161014560201b60201c565b50506105c5565b5f60065f9054906101000a900473ffffffffffffffffffffffffffffffffffffffff1690508160065f6101000a81548173ffffffffffffffffffffffffffffffffffffffff021916908373ffffffffffffffffffffffffffffffffffffffff1602179055508173ffffffffffffffffffffffffffffffffffffffff168173ffffffffffffffffffffffffffffffffffffffff167f8be0079c531659141344cd1fd0a4f28419497f9722a3daafe3b4186f6b6457e060405160405180910390a35050565b5f5ffd5b5f73ffffffffffffffffffffffffffffffffffffffff82169050919050565b5f6102358261020c565b9050919050565b6102458161022b565b811461024f575f5ffd5b50565b5f815190506102608161023c565b92915050565b5f6020828403121561027b5761027a610208565b5b5f61028884828501610252565b91505092915050565b5f81519050919050565b7f4e487b71000000000000000000000000000000000000000000000000000000005f52604160045260245ffd5b7f4e487b71000000000000000000000000000000000000000000000000000000005f52602260045260245ffd5b5f600282049050600182168061030c57607f821691505b60208210810361031f5761031e6102c8565b5b50919050565b5f819050815f5260205f209050919050565b5f6020601f8301049050919050565b5f82821b905092915050565b5f600883026103817fffffffffffffffffffffffffffffffffffffffffffffffffffffffffffffffff82610346565b61038b8683610346565b95508019841693508086168417925050509392505050565b5f819050919050565b5f819050919050565b5f6103cf6103ca6103c5846103a3565b6103ac565b6103a3565b9050919050565b5f819050919050565b6103e8836103b5565b6103fc6103f4826103d6565b848454610352565b825550505050565b5f5f905090565b610413610404565b61041e8184846103df565b505050565b5b81811015610441576104365f8261040b565b600181019050610424565b5050565b601f8211156104865761045781610325565b61046084610337565b8101602085101561046f578190505b61048361047b85610337565b830182610423565b50505b505050565b5f82821c905092915050565b5f6104a65f198460080261048b565b1980831691505092915050565b5f6104be8383610497565b9150826002028217905092915050565b6104d782610291565b67ffffffffffffffff8111156104f0576104ef61029b565b5b6104fa82546102f5565b610505828285610445565b5f60209050601f831160018114610536575f8415610524578287015190505b61052e85826104b3565b865550610595565b601f19841661054486610325565b5f5b8281101561056b57848901518255600182019150602085019450602081019050610546565b868310156105885784890151610584601f891682610497565b8355505b6001600288020188555050505b505050505050565b6105a68161022b565b82525050565b5f6020820190506105bf5f83018461059d565b92915050565b612465806105d25f395ff3fe608060405234801561000f575f5ffd5b5060043610610140575f3560e01c80638da5cb5b116100b6578063b88d4fde1161007a578063b88d4fde14610398578063c3be559b146103b4578063c87b56dd146103e4578063e95a644f14610414578063e985e9c514610430578063f2fde38b1461046057610140565b80638da5cb5b146102e057806395d89b41146102fe578063a22cb4651461031c578063a5f7f46614610338578063abdd97441461036857610140565b8063127a529811610108578063127a52981461020e57806323b872dd1461023e57806342842e0e1461025a5780636352211e1461027657806370a08231146102a6578063715018a6146102d657610140565b806301ffc9a714610144578063020865961461017457806306fdde03146101a4578063081812fc146101c2578063095ea7b3146101f2575b5f5ffd5b61015e60048036038101906101599190611bcc565b61047c565b60405161016b9190611c11565b60405180910390f35b61018e60048036038101906101899190611c5d565b61055d565b60405161019b9190611c11565b60405180910390f35b6101ac61057a565b6040516101b99190611cf8565b60405180910390f35b6101dc60048036038101906101d79190611c5d565b610609565b6040516101e99190611d57565b60405180910390f35b61020c60048036038101906102079190611d9a565b610624565b005b61022860048036038101906102239190611c5d565b61063a565b6040516102359190611de7565b60405180910390f35b61025860048036038101906102539190611e00565b61064f565b005b610274600480360381019061026f9190611e00565b61074e565b005b610290600480360381019061028b9190611c5d565b61076d565b60405161029d9190611d57565b60405180910390f35b6102c060048036038101906102bb9190611e50565b61077e565b6040516102cd9190611de7565b60405180910390f35b6102de610834565b005b6102e8610847565b6040516102f59190611d57565b60405180910390f35b61030661086f565b6040516103139190611cf8565b60405180910390f35b61033660048036038101906103319190611ea5565b6108ff565b005b610352600480360381019061034d9190611d9a565b610915565b60405161035f9190611de7565b60405180910390f35b610382600480360381019061037d9190611c5d565b610987565b60405161038f9190611c11565b60405180910390f35b6103b260048036038101906103ad919061200f565b6109ad565b005b6103ce60048036038101906103c99190611c5d565b6109d2565b6040516103db9190611de7565b60405180910390f35b6103fe60048036038101906103f99190611c5d565b6109ec565b60405161040b9190611cf8565b60405180910390f35b61042e60048036038101906104299190611c5d565b610a52565b005b61044a6004803603810190610445919061208f565b610b5a565b6040516104579190611c11565b60405180910390f35b61047a60048036038101906104759190611e50565b610be8565b005b5f7f80ac58cd000000000000000000000000000000000000000000000000000000007bffffffffffffffffffffffffffffffffffffffffffffffffffffffff1916827bffffffffffffffffffffffffffffffffffffffffffffffffffffffff1916148061054657507f5b5e139f000000000000000000000000000000000000000000000000000000007bffffffffffffffffffffffffffffffffffffffffffffffffffffffff1916827bffffffffffffffffffffffffffffffffffffffffffffffffffffffff1916145b80610556575061055582610c6c565b5b9050919050565b6009602052805f5260405f205f915054906101000a900460ff1681565b60605f8054610588906120fa565b80601f01602080910402602001604051908101604052809291908181526020018280546105b4906120fa565b80156105ff5780601f106105d6576101008083540402835291602001916105ff565b820191905f5260205f20905b8154815290600101906020018083116105e257829003601f168201915b5050505050905090565b5f61061382610cd5565b5061061d82610d5b565b9050919050565b6106368282610631610d94565b610d9b565b5050565b6008602052805f5260405f205f915090505481565b5f73ffffffffffffffffffffffffffffffffffffffff168273ffffffffffffffffffffffffffffffffffffffff16036106bf575f6040517f64a0ae920000000000000000000000000000000000000000000000000000000081526004016106b69190611d57565b60405180910390fd5b5f6106d283836106cd610d94565b610dad565b90508373ffffffffffffffffffffffffffffffffffffffff168173ffffffffffffffffffffffffffffffffffffffff1614610748578382826040517f64283d7b00000000000000000000000000000000000000000000000000000000815260040161073f9392919061212a565b60405180910390fd5b50505050565b61076883838360405180602001604052805f8152506109ad565b505050565b5f61077782610cd5565b9050919050565b5f5f73ffffffffffffffffffffffffffffffffffffffff168273ffffffffffffffffffffffffffffffffffffffff16036107ef575f6040517f89c62b640000000000000000000000000000000000000000000000000000000081526004016107e69190611d57565b60405180910390fd5b60035f8373ffffffffffffffffffffffffffffffffffffffff1673ffffffffffffffffffffffffffffffffffffffff1681526020019081526020015f20549050919050565b61083c610fb8565b6108455f61103f565b565b5f60065f9054906101000a900473ffffffffffffffffffffffffffffffffffffffff16905090565b60606001805461087e906120fa565b80601f01602080910402602001604051908101604052809291908181526020018280546108aa906120fa565b80156108f55780601f106108cc576101008083540402835291602001916108f5565b820191905f5260205f20905b8154815290600101906020018083116108d857829003601f168201915b5050505050905090565b61091161090a610d94565b8383611102565b5050565b5f61091e610fb8565b5f60075f815461092d9061218c565b919050819055905061093f84826112db565b8260085f8381526020019081526020015f20819055505f60095f8381526020019081526020015f205f6101000a81548160ff0219169083151502179055508091505092915050565b5f60095f8381526020019081526020015f205f9054906101000a900460ff169050919050565b6109b884848461064f565b6109cc6109c3610d94565b858585856112f8565b50505050565b5f60085f8381526020019081526020015f20549050919050565b60606109f782610cd5565b505f610a016114a4565b90505f815111610a1f5760405180602001604052805f815250610a4a565b80610a29846114ba565b604051602001610a3a92919061220d565b6040516020818303038152906040525b915050919050565b610a5a610fb8565b5f73ffffffffffffffffffffffffffffffffffffffff16610a7a8261076d565b73ffffffffffffffffffffffffffffffffffffffff1603610ad0576040517f08c379a0000000000000000000000000000000000000000000000000000000008152600401610ac79061227a565b60405180910390fd5b60095f8281526020019081526020015f205f9054906101000a900460ff1615610b2e576040517f08c379a0000000000000000000000000000000000000000000000000000000008152600401610b25906122e2565b60405180910390fd5b600160095f8381526020019081526020015f205f6101000a81548160ff02191690831515021790555050565b5f60055f8473ffffffffffffffffffffffffffffffffffffffff1673ffffffffffffffffffffffffffffffffffffffff1681526020019081526020015f205f8373ffffffffffffffffffffffffffffffffffffffff1673ffffffffffffffffffffffffffffffffffffffff1681526020019081526020015f205f9054906101000a900460ff16905092915050565b610bf0610fb8565b5f73ffffffffffffffffffffffffffffffffffffffff168173ffffffffffffffffffffffffffffffffffffffff1603610c60575f6040517f1e4fbdf7000000000000000000000000000000000000000000000000000000008152600401610c579190611d57565b60405180910390fd5b610c698161103f565b50565b5f7f01ffc9a7000000000000000000000000000000000000000000000000000000007bffffffffffffffffffffffffffffffffffffffffffffffffffffffff1916827bffffffffffffffffffffffffffffffffffffffffffffffffffffffff1916149050919050565b5f5f610ce083611584565b90505f73ffffffffffffffffffffffffffffffffffffffff168173ffffffffffffffffffffffffffffffffffffffff1603610d5257826040517f7e273289000000000000000000000000000000000000000000000000000000008152600401610d499190611de7565b60405180910390fd5b80915050919050565b5f60045f8381526020019081526020015f205f9054906101000a900473ffffffffffffffffffffffffffffffffffffffff169050919050565b5f33905090565b610da883838360016115bd565b505050565b5f5f610db884611584565b90505f73ffffffffffffffffffffffffffffffffffffffff168373ffffffffffffffffffffffffffffffffffffffff1614610df957610df881848661177c565b5b5f73ffffffffffffffffffffffffffffffffffffffff168173ffffffffffffffffffffffffffffffffffffffff1614610e8457610e385f855f5f6115bd565b600160035f8373ffffffffffffffffffffffffffffffffffffffff1673ffffffffffffffffffffffffffffffffffffffff1681526020019081526020015f205f82825403925050819055505b5f73ffffffffffffffffffffffffffffffffffffffff168573ffffffffffffffffffffffffffffffffffffffff1614610f0357600160035f8773ffffffffffffffffffffffffffffffffffffffff1673ffffffffffffffffffffffffffffffffffffffff1681526020019081526020015f205f82825401925050819055505b8460025f8681526020019081526020015f205f6101000a81548173ffffffffffffffffffffffffffffffffffffffff021916908373ffffffffffffffffffffffffffffffffffffffff160217905550838573ffffffffffffffffffffffffffffffffffffffff168273ffffffffffffffffffffffffffffffffffffffff167fddf252ad1be2c89b69c2b068fc378daa952ba7f163c4a11628f55a4df523b3ef60405160405180910390a4809150509392505050565b610fc0610d94565b73ffffffffffffffffffffffffffffffffffffffff16610fde610847565b73ffffffffffffffffffffffffffffffffffffffff161461103d57611001610d94565b6040517f118cdaa70000000000000000000000000000000000000000000000000000000081526004016110349190611d57565b60405180910390fd5b565b5f60065f9054906101000a900473ffffffffffffffffffffffffffffffffffffffff1690508160065f6101000a81548173ffffffffffffffffffffffffffffffffffffffff021916908373ffffffffffffffffffffffffffffffffffffffff1602179055508173ffffffffffffffffffffffffffffffffffffffff168173ffffffffffffffffffffffffffffffffffffffff167f8be0079c531659141344cd1fd0a4f28419497f9722a3daafe3b4186f6b6457e060405160405180910390a35050565b5f73ffffffffffffffffffffffffffffffffffffffff168373ffffffffffffffffffffffffffffffffffffffff1603611172575f6040517fa9fbf51f0000000000000000000000000000000000000000000000000000000081526004016111699190611d57565b60405180910390fd5b5f73ffffffffffffffffffffffffffffffffffffffff168273ffffffffffffffffffffffffffffffffffffffff16036111e257816040517f5b08ba180000000000000000000000000000000000000000000000000000000081526004016111d99190611d57565b60405180910390fd5b8060055f8573ffffffffffffffffffffffffffffffffffffffff1673ffffffffffffffffffffffffffffffffffffffff1681526020019081526020015f205f8473ffffffffffffffffffffffffffffffffffffffff1673ffffffffffffffffffffffffffffffffffffffff1681526020019081526020015f205f6101000a81548160ff0219169083151502179055508173ffffffffffffffffffffffffffffffffffffffff168373ffffffffffffffffffffffffffffffffffffffff167f17307eab39ab6107e8899845ad3d59bd9653f200f220920489ca2b5937696c31836040516112ce9190611c11565b60405180910390a3505050565b6112f4828260405180602001604052805f81525061183f565b5050565b5f8373ffffffffffffffffffffffffffffffffffffffff163b111561149d578273ffffffffffffffffffffffffffffffffffffffff1663150b7a02868685856040518563ffffffff1660e01b81526004016113569493929190612352565b6020604051808303815f875af192505050801561139157506040513d601f19601f8201168201806040525081019061138e91906123b0565b60015b611412573d805f81146113bf576040519150601f19603f3d011682016040523d82523d5f602084013e6113c4565b606091505b505f81510361140a57836040517f64a0ae920000000000000000000000000000000000000000000000000000000081526004016114019190611d57565b60405180910390fd5b805160208201fd5b63150b7a0260e01b7bffffffffffffffffffffffffffffffffffffffffffffffffffffffff1916817bffffffffffffffffffffffffffffffffffffffffffffffffffffffff19161461149b57836040517f64a0ae920000000000000000000000000000000000000000000000000000000081526004016114929190611d57565b60405180910390fd5b505b5050505050565b606060405180602001604052805f815250905090565b60605f60016114c884611862565b0190505f8167ffffffffffffffff8111156114e6576114e5611eeb565b5b6040519080825280601f01601f1916602001820160405280156115185781602001600182028036833780820191505090505b5090505f82602083010190505b600115611579578080600190039150507f3031323334353637383961626364656600000000000000000000000000000000600a86061a8153600a858161156e5761156d6123db565b5b0494505f8503611525575b819350505050919050565b5f60025f8381526020019081526020015f205f9054906101000a900473ffffffffffffffffffffffffffffffffffffffff169050919050565b80806115f557505f73ffffffffffffffffffffffffffffffffffffffff168273ffffffffffffffffffffffffffffffffffffffff1614155b15611727575f61160484610cd5565b90505f73ffffffffffffffffffffffffffffffffffffffff168373ffffffffffffffffffffffffffffffffffffffff161415801561166e57508273ffffffffffffffffffffffffffffffffffffffff168173ffffffffffffffffffffffffffffffffffffffff1614155b8015611681575061167f8184610b5a565b155b156116c357826040517fa9fbf51f0000000000000000000000000000000000000000000000000000000081526004016116ba9190611d57565b60405180910390fd5b811561172557838573ffffffffffffffffffffffffffffffffffffffff168273ffffffffffffffffffffffffffffffffffffffff167f8c5be1e5ebec7d5bd14f71427d1e84f3dd0314c0f7b2291e5b200ac8c7c3b92560405160405180910390a45b505b8360045f8581526020019081526020015f205f6101000a81548173ffffffffffffffffffffffffffffffffffffffff021916908373ffffffffffffffffffffffffffffffffffffffff16021790555050505050565b6117878383836119b3565b61183a575f73ffffffffffffffffffffffffffffffffffffffff168373ffffffffffffffffffffffffffffffffffffffff16036117fb57806040517f7e2732890000000000000000000000000000000000000000000000000000000081526004016117f29190611de7565b60405180910390fd5b81816040517f177e802f000000000000000000000000000000000000000000000000000000008152600401611831929190612408565b60405180910390fd5b505050565b6118498383611a73565b61185d611854610d94565b5f8585856112f8565b505050565b5f5f5f90507a184f03e93ff9f4daa797ed6e38ed64bf6a1f01000000000000000083106118be577a184f03e93ff9f4daa797ed6e38ed64bf6a1f01000000000000000083816118b4576118b36123db565b5b0492506040810190505b6d04ee2d6d415b85acef810000000083106118fb576d04ee2d6d415b85acef810000000083816118f1576118f06123db565b5b0492506020810190505b662386f26fc10000831061192a57662386f26fc1000083816119205761191f6123db565b5b0492506010810190505b6305f5e1008310611953576305f5e1008381611949576119486123db565b5b0492506008810190505b612710831061197857612710838161196e5761196d6123db565b5b0492506004810190505b6064831061199b5760648381611991576119906123db565b5b0492506002810190505b600a83106119aa576001810190505b80915050919050565b5f5f73ffffffffffffffffffffffffffffffffffffffff168373ffffffffffffffffffffffffffffffffffffffff1614158015611a6a57508273ffffffffffffffffffffffffffffffffffffffff168473ffffffffffffffffffffffffffffffffffffffff161480611a2b5750611a2a8484610b5a565b5b80611a6957508273ffffffffffffffffffffffffffffffffffffffff16611a5183610d5b565b73ffffffffffffffffffffffffffffffffffffffff16145b5b90509392505050565b5f73ffffffffffffffffffffffffffffffffffffffff168273ffffffffffffffffffffffffffffffffffffffff1603611ae3575f6040517f64a0ae92000000000000000000000000000000000000000000000000000000008152600401611ada9190611d57565b60405180910390fd5b5f611aef83835f610dad565b90505f73ffffffffffffffffffffffffffffffffffffffff168173ffffffffffffffffffffffffffffffffffffffff1614611b61575f6040517f73c6ac6e000000000000000000000000000000000000000000000000000000008152600401611b589190611d57565b60405180910390fd5b505050565b5f604051905090565b5f5ffd5b5f5ffd5b5f7fffffffff0000000000000000000000000000000000000000000000000000000082169050919050565b611bab81611b77565b8114611bb5575f5ffd5b50565b5f81359050611bc681611ba2565b92915050565b5f60208284031215611be157611be0611b6f565b5b5f611bee84828501611bb8565b91505092915050565b5f8115159050919050565b611c0b81611bf7565b82525050565b5f602082019050611c245f830184611c02565b92915050565b5f819050919050565b611c3c81611c2a565b8114611c46575f5ffd5b50565b5f81359050611c5781611c33565b92915050565b5f60208284031215611c7257611c71611b6f565b5b5f611c7f84828501611c49565b91505092915050565b5f81519050919050565b5f82825260208201905092915050565b8281835e5f83830152505050565b5f601f19601f8301169050919050565b5f611cca82611c88565b611cd48185611c92565b9350611ce4818560208601611ca2565b611ced81611cb0565b840191505092915050565b5f6020820190508181035f830152611d108184611cc0565b905092915050565b5f73ffffffffffffffffffffffffffffffffffffffff82169050919050565b5f611d4182611d18565b9050919050565b611d5181611d37565b82525050565b5f602082019050611d6a5f830184611d48565b92915050565b611d7981611d37565b8114611d83575f5ffd5b50565b5f81359050611d9481611d70565b92915050565b5f5f60408385031215611db057611daf611b6f565b5b5f611dbd85828601611d86565b9250506020611dce85828601611c49565b9150509250929050565b611de181611c2a565b82525050565b5f602082019050611dfa5f830184611dd8565b92915050565b5f5f5f60608486031215611e1757611e16611b6f565b5b5f611e2486828701611d86565b9350506020611e3586828701611d86565b9250506040611e4686828701611c49565b9150509250925092565b5f60208284031215611e6557611e64611b6f565b5b5f611e7284828501611d86565b91505092915050565b611e8481611bf7565b8114611e8e575f5ffd5b50565b5f81359050611e9f81611e7b565b92915050565b5f5f60408385031215611ebb57611eba611b6f565b5b5f611ec885828601611d86565b9250506020611ed985828601611e91565b9150509250929050565b5f5ffd5b5f5ffd5b7f4e487b71000000000000000000000000000000000000000000000000000000005f52604160045260245ffd5b611f2182611cb0565b810181811067ffffffffffffffff82111715611f4057611f3f611eeb565b5b80604052505050565b5f611f52611b66565b9050611f5e8282611f18565b919050565b5f67ffffffffffffffff821115611f7d57611f7c611eeb565b5b611f8682611cb0565b9050602081019050919050565b828183375f83830152505050565b5f611fb3611fae84611f63565b611f49565b905082815260208101848484011115611fcf57611fce611ee7565b5b611fda848285611f93565b509392505050565b5f82601f830112611ff657611ff5611ee3565b5b8135612006848260208601611fa1565b91505092915050565b5f5f5f5f6080858703121561202757612026611b6f565b5b5f61203487828801611d86565b945050602061204587828801611d86565b935050604061205687828801611c49565b925050606085013567ffffffffffffffff81111561207757612076611b73565b5b61208387828801611fe2565b91505092959194509250565b5f5f604083850312156120a5576120a4611b6f565b5b5f6120b285828601611d86565b92505060206120c385828601611d86565b9150509250929050565b7f4e487b71000000000000000000000000000000000000000000000000000000005f52602260045260245ffd5b5f600282049050600182168061211157607f821691505b602082108103612124576121236120cd565b5b50919050565b5f60608201905061213d5f830186611d48565b61214a6020830185611dd8565b6121576040830184611d48565b949350505050565b7f4e487b71000000000000000000000000000000000000000000000000000000005f52601160045260245ffd5b5f61219682611c2a565b91507fffffffffffffffffffffffffffffffffffffffffffffffffffffffffffffffff82036121c8576121c761215f565b5b600182019050919050565b5f81905092915050565b5f6121e782611c88565b6121f181856121d3565b9350612201818560208601611ca2565b80840191505092915050565b5f61221882856121dd565b915061222482846121dd565b91508190509392505050565b7f5469636b6574206e6f7420666f756e64000000000000000000000000000000005f82015250565b5f612264601083611c92565b915061226f82612230565b602082019050919050565b5f6020820190508181035f83015261229181612258565b9050919050565b7f416c726561647920636865636b656420696e00000000000000000000000000005f82015250565b5f6122cc601283611c92565b91506122d782612298565b602082019050919050565b5f6020820190508181035f8301526122f9816122c0565b9050919050565b5f81519050919050565b5f82825260208201905092915050565b5f61232482612300565b61232e818561230a565b935061233e818560208601611ca2565b61234781611cb0565b840191505092915050565b5f6080820190506123655f830187611d48565b6123726020830186611d48565b61237f6040830185611dd8565b8181036060830152612391818461231a565b905095945050505050565b5f815190506123aa81611ba2565b92915050565b5f602082840312156123c5576123c4611b6f565b5b5f6123d28482850161239c565b91505092915050565b7f4e487b71000000000000000000000000000000000000000000000000000000005f52601260045260245ffd5b5f60408201905061241b5f830185611d48565b6124286020830184611dd8565b939250505056fea26469706673582212201ca8a59e0b1b4b3e8baf42b742cda23a6f71fc6cbe9328da7135bd64eddee49064736f6c634300081c0033",
  "linkReferences": {},
  "deployedLinkReferences": {},
  "immutableReferences": {},
  "inputSourceName": "project/contracts/TickifyTicket.sol",
  "buildInfoId": "solc-0_8_28-f9224e2045d46e194ef5d53a6aeefa524e2631fa"
}